{
  "contractName": "PixelToken",
  "abi": [
    {
      "inputs": [],
      "stateMutability": "nonpayable",
      "type": "constructor"
    },
    {
      "anonymous": false,
      "inputs": [
        {
          "indexed": true,
          "internalType": "address",
          "name": "owner",
          "type": "address"
        },
        {
          "indexed": true,
          "internalType": "address",
          "name": "spender",
          "type": "address"
        },
        {
          "indexed": false,
          "internalType": "uint256",
          "name": "value",
          "type": "uint256"
        }
      ],
      "name": "Approval",
      "type": "event"
    },
    {
      "anonymous": false,
      "inputs": [
        {
          "indexed": true,
          "internalType": "address",
          "name": "previousOwner",
          "type": "address"
        },
        {
          "indexed": true,
          "internalType": "address",
          "name": "newOwner",
          "type": "address"
        }
      ],
      "name": "OwnershipTransferred",
      "type": "event"
    },
    {
      "anonymous": false,
      "inputs": [
        {
          "indexed": true,
          "internalType": "address",
          "name": "purchaser",
          "type": "address"
        },
        {
          "indexed": false,
          "internalType": "uint256",
          "name": "amount",
          "type": "uint256"
        }
      ],
      "name": "TokensPurchased",
      "type": "event"
    },
    {
      "anonymous": false,
      "inputs": [
        {
          "indexed": true,
          "internalType": "address",
          "name": "from",
          "type": "address"
        },
        {
          "indexed": true,
          "internalType": "address",
          "name": "to",
          "type": "address"
        },
        {
          "indexed": false,
          "internalType": "uint256",
          "name": "value",
          "type": "uint256"
        }
      ],
      "name": "Transfer",
      "type": "event"
    },
    {
      "inputs": [
        {
          "internalType": "address",
          "name": "owner",
          "type": "address"
        },
        {
          "internalType": "address",
          "name": "spender",
          "type": "address"
        }
      ],
      "name": "allowance",
      "outputs": [
        {
          "internalType": "uint256",
          "name": "",
          "type": "uint256"
        }
      ],
      "stateMutability": "view",
      "type": "function"
    },
    {
      "inputs": [
        {
          "internalType": "address",
          "name": "spender",
          "type": "address"
        },
        {
          "internalType": "uint256",
          "name": "amount",
          "type": "uint256"
        }
      ],
      "name": "approve",
      "outputs": [
        {
          "internalType": "bool",
          "name": "",
          "type": "bool"
        }
      ],
      "stateMutability": "nonpayable",
      "type": "function"
    },
    {
      "inputs": [
        {
          "internalType": "address",
          "name": "account",
          "type": "address"
        }
      ],
      "name": "balanceOf",
      "outputs": [
        {
          "internalType": "uint256",
          "name": "",
          "type": "uint256"
        }
      ],
      "stateMutability": "view",
      "type": "function"
    },
    {
      "inputs": [
        {
          "internalType": "address",
          "name": "spender",
          "type": "address"
        },
        {
          "internalType": "uint256",
          "name": "subtractedValue",
          "type": "uint256"
        }
      ],
      "name": "decreaseAllowance",
      "outputs": [
        {
          "internalType": "bool",
          "name": "",
          "type": "bool"
        }
      ],
      "stateMutability": "nonpayable",
      "type": "function"
    },
    {
      "inputs": [
        {
          "internalType": "address",
          "name": "spender",
          "type": "address"
        },
        {
          "internalType": "uint256",
          "name": "addedValue",
          "type": "uint256"
        }
      ],
      "name": "increaseAllowance",
      "outputs": [
        {
          "internalType": "bool",
          "name": "",
          "type": "bool"
        }
      ],
      "stateMutability": "nonpayable",
      "type": "function"
    },
    {
      "inputs": [],
      "name": "name",
      "outputs": [
        {
          "internalType": "string",
          "name": "",
          "type": "string"
        }
      ],
      "stateMutability": "view",
      "type": "function"
    },
    {
      "inputs": [],
      "name": "owner",
      "outputs": [
        {
          "internalType": "address",
          "name": "",
          "type": "address"
        }
      ],
      "stateMutability": "view",
      "type": "function"
    },
    {
      "inputs": [],
      "name": "renounceOwnership",
      "outputs": [],
      "stateMutability": "nonpayable",
      "type": "function"
    },
    {
      "inputs": [],
      "name": "symbol",
      "outputs": [
        {
          "internalType": "string",
          "name": "",
          "type": "string"
        }
      ],
      "stateMutability": "view",
      "type": "function"
    },
    {
      "inputs": [],
      "name": "totalSupply",
      "outputs": [
        {
          "internalType": "uint256",
          "name": "",
          "type": "uint256"
        }
      ],
      "stateMutability": "view",
      "type": "function"
    },
    {
      "inputs": [
        {
          "internalType": "address",
          "name": "recipient",
          "type": "address"
        },
        {
          "internalType": "uint256",
          "name": "amount",
          "type": "uint256"
        }
      ],
      "name": "transfer",
      "outputs": [
        {
          "internalType": "bool",
          "name": "",
          "type": "bool"
        }
      ],
      "stateMutability": "nonpayable",
      "type": "function"
    },
    {
      "inputs": [
        {
          "internalType": "address",
          "name": "sender",
          "type": "address"
        },
        {
          "internalType": "address",
          "name": "recipient",
          "type": "address"
        },
        {
          "internalType": "uint256",
          "name": "amount",
          "type": "uint256"
        }
      ],
      "name": "transferFrom",
      "outputs": [
        {
          "internalType": "bool",
          "name": "",
          "type": "bool"
        }
      ],
      "stateMutability": "nonpayable",
      "type": "function"
    },
    {
      "inputs": [
        {
          "internalType": "address",
          "name": "newOwner",
          "type": "address"
        }
      ],
      "name": "transferOwnership",
      "outputs": [],
      "stateMutability": "nonpayable",
      "type": "function"
    },
    {
      "inputs": [
        {
          "internalType": "contract IERC20",
          "name": "_dai",
          "type": "address"
        }
      ],
      "name": "setDaiToken",
      "outputs": [],
      "stateMutability": "nonpayable",
      "type": "function"
    },
    {
      "inputs": [],
      "name": "decimals",
      "outputs": [
        {
          "internalType": "uint8",
          "name": "",
          "type": "uint8"
        }
      ],
      "stateMutability": "view",
      "type": "function"
    },
    {
      "inputs": [],
      "name": "getBuyerLength",
      "outputs": [
        {
          "internalType": "uint256",
          "name": "",
          "type": "uint256"
        }
      ],
      "stateMutability": "view",
      "type": "function"
    },
    {
      "inputs": [
        {
          "internalType": "address",
          "name": "account",
          "type": "address"
        }
      ],
      "name": "isBuyer",
      "outputs": [
        {
          "internalType": "bool",
          "name": "",
          "type": "bool"
        }
      ],
      "stateMutability": "view",
      "type": "function"
    },
    {
      "inputs": [
        {
          "internalType": "uint256",
          "name": "_index",
          "type": "uint256"
        }
      ],
      "name": "getBuyer",
      "outputs": [
        {
          "internalType": "address",
          "name": "",
          "type": "address"
        }
      ],
      "stateMutability": "view",
      "type": "function"
    },
    {
      "inputs": [],
      "name": "approveDai",
      "outputs": [],
      "stateMutability": "nonpayable",
      "type": "function"
    },
    {
      "inputs": [
        {
          "internalType": "uint256",
          "name": "buyAmount",
          "type": "uint256"
        }
      ],
      "name": "buyPixel",
      "outputs": [],
      "stateMutability": "nonpayable",
      "type": "function"
    },
    {
      "inputs": [
        {
          "internalType": "uint256",
          "name": "_amount",
          "type": "uint256"
        }
      ],
      "name": "withDrawDai",
      "outputs": [],
      "stateMutability": "nonpayable",
      "type": "function"
    }
  ],
  "bytecode": "0x6080604052620f42406006553480156200001857600080fd5b506040518060400160405280600b81526020017f506978656c20546f6b656e0000000000000000000000000000000000000000008152506040518060400160405280600581526020017f504958454c00000000000000000000000000000000000000000000000000000081525081600390805190602001906200009d92919062000344565b508060049080519060200190620000b692919062000344565b505050620000d9620000cd620000f360201b60201c565b620000fb60201b60201c565b620000ed30600654620001c160201b60201c565b62000592565b600033905090565b6000600560009054906101000a900473ffffffffffffffffffffffffffffffffffffffff16905081600560006101000a81548173ffffffffffffffffffffffffffffffffffffffff021916908373ffffffffffffffffffffffffffffffffffffffff1602179055508173ffffffffffffffffffffffffffffffffffffffff168173ffffffffffffffffffffffffffffffffffffffff167f8be0079c531659141344cd1fd0a4f28419497f9722a3daafe3b4186f6b6457e060405160405180910390a35050565b600073ffffffffffffffffffffffffffffffffffffffff168273ffffffffffffffffffffffffffffffffffffffff16141562000234576040517f08c379a00000000000000000000000000000000000000000000000000000000081526004016200022b9062000447565b60405180910390fd5b62000248600083836200033a60201b60201c565b80600260008282546200025c919062000497565b92505081905550806000808473ffffffffffffffffffffffffffffffffffffffff1673ffffffffffffffffffffffffffffffffffffffff1681526020019081526020016000206000828254620002b3919062000497565b925050819055508173ffffffffffffffffffffffffffffffffffffffff16600073ffffffffffffffffffffffffffffffffffffffff167fddf252ad1be2c89b69c2b068fc378daa952ba7f163c4a11628f55a4df523b3ef836040516200031a919062000469565b60405180910390a362000336600083836200033f60201b60201c565b5050565b505050565b505050565b8280546200035290620004fe565b90600052602060002090601f016020900481019282620003765760008555620003c2565b82601f106200039157805160ff1916838001178555620003c2565b82800160010185558215620003c2579182015b82811115620003c1578251825591602001919060010190620003a4565b5b509050620003d19190620003d5565b5090565b5b80821115620003f0576000816000905550600101620003d6565b5090565b600062000403601f8362000486565b91507f45524332303a206d696e7420746f20746865207a65726f2061646472657373006000830152602082019050919050565b6200044181620004f4565b82525050565b600060208201905081810360008301526200046281620003f4565b9050919050565b600060208201905062000480600083018462000436565b92915050565b600082825260208201905092915050565b6000620004a482620004f4565b9150620004b183620004f4565b9250827fffffffffffffffffffffffffffffffffffffffffffffffffffffffffffffffff03821115620004e957620004e862000534565b5b828201905092915050565b6000819050919050565b600060028204905060018216806200051757607f821691505b602082108114156200052e576200052d62000563565b5b50919050565b7f4e487b7100000000000000000000000000000000000000000000000000000000600052601160045260246000fd5b7f4e487b7100000000000000000000000000000000000000000000000000000000600052602260045260246000fd5b6128d380620005a26000396000f3fe608060405234801561001057600080fd5b50600436106101375760003560e01c80638da5cb5b116100b8578063a9059cbb1161007c578063a9059cbb14610366578063acee287114610396578063c7585886146103b2578063dd62ed3e146103bc578063e75fa06e146103ec578063f2fde38b1461040857610137565b80638da5cb5b146102c057806395d89b41146102de57806396fe0582146102fc5780639c509bc21461031a578063a457c2d71461033657610137565b8063313ce567116100ff578063313ce5671461020857806339509351146102265780635bf608b81461025657806370a0823114610286578063715018a6146102b657610137565b806306fdde031461013c578063095ea7b31461015a57806318160ddd1461018a57806323b872dd146101a85780632a55feec146101d8575b600080fd5b610144610424565b6040516101519190612338565b60405180910390f35b610174600480360381019061016f9190611b14565b6104b6565b604051610181919061231d565b60405180910390f35b6101926104d4565b60405161019f919061255a565b60405180910390f35b6101c260048036038101906101bd9190611ac5565b6104de565b6040516101cf919061231d565b60405180910390f35b6101f260048036038101906101ed9190611a60565b6105d6565b6040516101ff919061231d565b60405180910390f35b6102106105ea565b60405161021d9190612575565b60405180910390f35b610240600480360381019061023b9190611b14565b6105ef565b60405161024d919061231d565b60405180910390f35b610270600480360381019061026b9190611ba2565b61069b565b60405161027d9190612279565b60405180910390f35b6102a0600480360381019061029b9190611a60565b610705565b6040516102ad919061255a565b60405180910390f35b6102be61074d565b005b6102c86107d5565b6040516102d59190612279565b60405180910390f35b6102e66107ff565b6040516102f39190612338565b60405180910390f35b610304610891565b604051610311919061255a565b60405180910390f35b610334600480360381019061032f9190611ba2565b6108a2565b005b610350600480360381019061034b9190611b14565b610975565b60405161035d919061231d565b60405180910390f35b610380600480360381019061037b9190611b14565b610a60565b60405161038d919061231d565b60405180910390f35b6103b060048036038101906103ab9190611b79565b610a7e565b005b6103ba610b3e565b005b6103d660048036038101906103d19190611a89565b610b8f565b6040516103e3919061255a565b60405180910390f35b61040660048036038101906104019190611ba2565b610c16565b005b610422600480360381019061041d9190611a60565b610df1565b005b60606003805461043390612771565b80601f016020809104026020016040519081016040528092919081815260200182805461045f90612771565b80156104ac5780601f10610481576101008083540402835291602001916104ac565b820191906000526020600020905b81548152906001019060200180831161048f57829003601f168201915b5050505050905090565b60006104ca6104c3610ee9565b8484610ef1565b6001905092915050565b6000600254905090565b60006104eb8484846110bc565b6000600160008673ffffffffffffffffffffffffffffffffffffffff1673ffffffffffffffffffffffffffffffffffffffff1681526020019081526020016000206000610536610ee9565b73ffffffffffffffffffffffffffffffffffffffff1673ffffffffffffffffffffffffffffffffffffffff168152602001908152602001600020549050828110156105b6576040517f08c379a00000000000000000000000000000000000000000000000000000000081526004016105ad9061241a565b60405180910390fd5b6105ca856105c2610ee9565b858403610ef1565b60019150509392505050565b60006105e360078361133d565b9050919050565b600090565b60006106916105fc610ee9565b84846001600061060a610ee9565b73ffffffffffffffffffffffffffffffffffffffff1673ffffffffffffffffffffffffffffffffffffffff16815260200190815260200160002060008873ffffffffffffffffffffffffffffffffffffffff1673ffffffffffffffffffffffffffffffffffffffff1681526020019081526020016000205461068c91906125c2565b610ef1565b6001905092915050565b600060016106a7610891565b6106b191906126a3565b8211156106f3576040517f08c379a00000000000000000000000000000000000000000000000000000000081526004016106ea906123fa565b60405180910390fd5b6106fe60078361136d565b9050919050565b60008060008373ffffffffffffffffffffffffffffffffffffffff1673ffffffffffffffffffffffffffffffffffffffff168152602001908152602001600020549050919050565b610755610ee9565b73ffffffffffffffffffffffffffffffffffffffff166107736107d5565b73ffffffffffffffffffffffffffffffffffffffff16146107c9576040517f08c379a00000000000000000000000000000000000000000000000000000000081526004016107c09061243a565b60405180910390fd5b6107d36000611387565b565b6000600560009054906101000a900473ffffffffffffffffffffffffffffffffffffffff16905090565b60606004805461080e90612771565b80601f016020809104026020016040519081016040528092919081815260200182805461083a90612771565b80156108875780601f1061085c57610100808354040283529160200191610887565b820191906000526020600020905b81548152906001019060200180831161086a57829003601f168201915b5050505050905090565b600061089d600761144d565b905090565b6108aa610ee9565b73ffffffffffffffffffffffffffffffffffffffff166108c86107d5565b73ffffffffffffffffffffffffffffffffffffffff161461091e576040517f08c379a00000000000000000000000000000000000000000000000000000000081526004016109159061243a565b60405180910390fd5b610972610929610ee9565b82600960009054906101000a900473ffffffffffffffffffffffffffffffffffffffff1673ffffffffffffffffffffffffffffffffffffffff166114629092919063ffffffff16565b50565b60008060016000610984610ee9565b73ffffffffffffffffffffffffffffffffffffffff1673ffffffffffffffffffffffffffffffffffffffff16815260200190815260200160002060008573ffffffffffffffffffffffffffffffffffffffff1673ffffffffffffffffffffffffffffffffffffffff16815260200190815260200160002054905082811015610a41576040517f08c379a0000000000000000000000000000000000000000000000000000000008152600401610a389061253a565b60405180910390fd5b610a55610a4c610ee9565b85858403610ef1565b600191505092915050565b6000610a74610a6d610ee9565b84846110bc565b6001905092915050565b610a86610ee9565b73ffffffffffffffffffffffffffffffffffffffff16610aa46107d5565b73ffffffffffffffffffffffffffffffffffffffff1614610afa576040517f08c379a0000000000000000000000000000000000000000000000000000000008152600401610af19061243a565b60405180910390fd5b80600960006101000a81548173ffffffffffffffffffffffffffffffffffffffff021916908373ffffffffffffffffffffffffffffffffffffffff16021790555050565b610b8d30600019600960009054906101000a900473ffffffffffffffffffffffffffffffffffffffff1673ffffffffffffffffffffffffffffffffffffffff166114e89092919063ffffffff16565b565b6000600160008473ffffffffffffffffffffffffffffffffffffffff1673ffffffffffffffffffffffffffffffffffffffff16815260200190815260200160002060008373ffffffffffffffffffffffffffffffffffffffff1673ffffffffffffffffffffffffffffffffffffffff16815260200190815260200160002054905092915050565b6000610c2130610705565b90506000610c35610c30610ee9565b610705565b90506000610c606064610c5260648761164690919063ffffffff16565b61165c90919063ffffffff16565b9050600081118015610c725750808310155b610cb1576040517f08c379a0000000000000000000000000000000000000000000000000000000008152600401610ca8906124fa565b60405180910390fd5b610cc7600a60065461164690919063ffffffff16565b8183610cd391906125c2565b1115610d14576040517f08c379a0000000000000000000000000000000000000000000000000000000008152600401610d0b906124ba565b60405180910390fd5b610d84610d1f610ee9565b30610d3b670de0b6b3a76400008561165c90919063ffffffff16565b600960009054906101000a900473ffffffffffffffffffffffffffffffffffffffff1673ffffffffffffffffffffffffffffffffffffffff16611672909392919063ffffffff16565b610d95610d8f610ee9565b82610a60565b50610d9e610ee9565b73ffffffffffffffffffffffffffffffffffffffff167f8f28852646c20cc973d3a8218f7eefed58c25c909f78f0265af4818c3d4dc27182604051610de3919061255a565b60405180910390a250505050565b610df9610ee9565b73ffffffffffffffffffffffffffffffffffffffff16610e176107d5565b73ffffffffffffffffffffffffffffffffffffffff1614610e6d576040517f08c379a0000000000000000000000000000000000000000000000000000000008152600401610e649061243a565b60405180910390fd5b600073ffffffffffffffffffffffffffffffffffffffff168173ffffffffffffffffffffffffffffffffffffffff161415610edd576040517f08c379a0000000000000000000000000000000000000000000000000000000008152600401610ed49061237a565b60405180910390fd5b610ee681611387565b50565b600033905090565b600073ffffffffffffffffffffffffffffffffffffffff168373ffffffffffffffffffffffffffffffffffffffff161415610f61576040517f08c379a0000000000000000000000000000000000000000000000000000000008152600401610f589061247a565b60405180910390fd5b600073ffffffffffffffffffffffffffffffffffffffff168273ffffffffffffffffffffffffffffffffffffffff161415610fd1576040517f08c379a0000000000000000000000000000000000000000000000000000000008152600401610fc89061239a565b60405180910390fd5b80600160008573ffffffffffffffffffffffffffffffffffffffff1673ffffffffffffffffffffffffffffffffffffffff16815260200190815260200160002060008473ffffffffffffffffffffffffffffffffffffffff1673ffffffffffffffffffffffffffffffffffffffff168152602001908152602001600020819055508173ffffffffffffffffffffffffffffffffffffffff168373ffffffffffffffffffffffffffffffffffffffff167f8c5be1e5ebec7d5bd14f71427d1e84f3dd0314c0f7b2291e5b200ac8c7c3b925836040516110af919061255a565b60405180910390a3505050565b600073ffffffffffffffffffffffffffffffffffffffff168373ffffffffffffffffffffffffffffffffffffffff16141561112c576040517f08c379a00000000000000000000000000000000000000000000000000000000081526004016111239061245a565b60405180910390fd5b600073ffffffffffffffffffffffffffffffffffffffff168273ffffffffffffffffffffffffffffffffffffffff16141561119c576040517f08c379a00000000000000000000000000000000000000000000000000000000081526004016111939061235a565b60405180910390fd5b6111a78383836116fb565b60008060008573ffffffffffffffffffffffffffffffffffffffff1673ffffffffffffffffffffffffffffffffffffffff1681526020019081526020016000205490508181101561122d576040517f08c379a0000000000000000000000000000000000000000000000000000000008152600401611224906123ba565b60405180910390fd5b8181036000808673ffffffffffffffffffffffffffffffffffffffff1673ffffffffffffffffffffffffffffffffffffffff16815260200190815260200160002081905550816000808573ffffffffffffffffffffffffffffffffffffffff1673ffffffffffffffffffffffffffffffffffffffff16815260200190815260200160002060008282546112c091906125c2565b925050819055508273ffffffffffffffffffffffffffffffffffffffff168473ffffffffffffffffffffffffffffffffffffffff167fddf252ad1be2c89b69c2b068fc378daa952ba7f163c4a11628f55a4df523b3ef84604051611324919061255a565b60405180910390a3611337848484611700565b50505050565b6000611365836000018373ffffffffffffffffffffffffffffffffffffffff1660001b611705565b905092915050565b600061137c8360000183611728565b60001c905092915050565b6000600560009054906101000a900473ffffffffffffffffffffffffffffffffffffffff16905081600560006101000a81548173ffffffffffffffffffffffffffffffffffffffff021916908373ffffffffffffffffffffffffffffffffffffffff1602179055508173ffffffffffffffffffffffffffffffffffffffff168173ffffffffffffffffffffffffffffffffffffffff167f8be0079c531659141344cd1fd0a4f28419497f9722a3daafe3b4186f6b6457e060405160405180910390a35050565b600061145b82600001611779565b9050919050565b6114e38363a9059cbb60e01b84846040516024016114819291906122f4565b604051602081830303815290604052907bffffffffffffffffffffffffffffffffffffffffffffffffffffffff19166020820180517bffffffffffffffffffffffffffffffffffffffffffffffffffffffff838183161783525050505061178a565b505050565b6000811480611581575060008373ffffffffffffffffffffffffffffffffffffffff1663dd62ed3e30856040518363ffffffff1660e01b815260040161152f929190612294565b60206040518083038186803b15801561154757600080fd5b505afa15801561155b573d6000803e3d6000fd5b505050506040513d601f19601f8201168201806040525081019061157f9190611bcb565b145b6115c0576040517f08c379a00000000000000000000000000000000000000000000000000000000081526004016115b79061251a565b60405180910390fd5b6116418363095ea7b360e01b84846040516024016115df9291906122f4565b604051602081830303815290604052907bffffffffffffffffffffffffffffffffffffffffffffffffffffffff19166020820180517bffffffffffffffffffffffffffffffffffffffffffffffffffffffff838183161783525050505061178a565b505050565b600081836116549190612618565b905092915050565b6000818361166a9190612649565b905092915050565b6116f5846323b872dd60e01b858585604051602401611693939291906122bd565b604051602081830303815290604052907bffffffffffffffffffffffffffffffffffffffffffffffffffffffff19166020820180517bffffffffffffffffffffffffffffffffffffffffffffffffffffffff838183161783525050505061178a565b50505050565b505050565b505050565b600080836001016000848152602001908152602001600020541415905092915050565b6000826000018281548110611766577f4e487b7100000000000000000000000000000000000000000000000000000000600052603260045260246000fd5b9060005260206000200154905092915050565b600081600001805490509050919050565b60006117ec826040518060400160405280602081526020017f5361666545524332303a206c6f772d6c6576656c2063616c6c206661696c65648152508573ffffffffffffffffffffffffffffffffffffffff166118519092919063ffffffff16565b905060008151111561184c578080602001905181019061180c9190611b50565b61184b576040517f08c379a0000000000000000000000000000000000000000000000000000000008152600401611842906124da565b60405180910390fd5b5b505050565b60606118608484600085611869565b90509392505050565b6060824710156118ae576040517f08c379a00000000000000000000000000000000000000000000000000000000081526004016118a5906123da565b60405180910390fd5b6118b78561197d565b6118f6576040517f08c379a00000000000000000000000000000000000000000000000000000000081526004016118ed9061249a565b60405180910390fd5b6000808673ffffffffffffffffffffffffffffffffffffffff16858760405161191f9190612262565b60006040518083038185875af1925050503d806000811461195c576040519150601f19603f3d011682016040523d82523d6000602084013e611961565b606091505b5091509150611971828286611990565b92505050949350505050565b600080823b905060008111915050919050565b606083156119a0578290506119f0565b6000835111156119b35782518084602001fd5b816040517f08c379a00000000000000000000000000000000000000000000000000000000081526004016119e79190612338565b60405180910390fd5b9392505050565b600081359050611a0681612841565b92915050565b600081519050611a1b81612858565b92915050565b600081359050611a308161286f565b92915050565b600081359050611a4581612886565b92915050565b600081519050611a5a81612886565b92915050565b600060208284031215611a7257600080fd5b6000611a80848285016119f7565b91505092915050565b60008060408385031215611a9c57600080fd5b6000611aaa858286016119f7565b9250506020611abb858286016119f7565b9150509250929050565b600080600060608486031215611ada57600080fd5b6000611ae8868287016119f7565b9350506020611af9868287016119f7565b9250506040611b0a86828701611a36565b9150509250925092565b60008060408385031215611b2757600080fd5b6000611b35858286016119f7565b9250506020611b4685828601611a36565b9150509250929050565b600060208284031215611b6257600080fd5b6000611b7084828501611a0c565b91505092915050565b600060208284031215611b8b57600080fd5b6000611b9984828501611a21565b91505092915050565b600060208284031215611bb457600080fd5b6000611bc284828501611a36565b91505092915050565b600060208284031215611bdd57600080fd5b6000611beb84828501611a4b565b91505092915050565b611bfd816126d7565b82525050565b611c0c816126e9565b82525050565b6000611c1d82612590565b611c2781856125a6565b9350611c3781856020860161273e565b80840191505092915050565b6000611c4e8261259b565b611c5881856125b1565b9350611c6881856020860161273e565b611c7181612830565b840191505092915050565b6000611c896023836125b1565b91507f45524332303a207472616e7366657220746f20746865207a65726f206164647260008301527f65737300000000000000000000000000000000000000000000000000000000006020830152604082019050919050565b6000611cef6026836125b1565b91507f4f776e61626c653a206e6577206f776e657220697320746865207a65726f206160008301527f64647265737300000000000000000000000000000000000000000000000000006020830152604082019050919050565b6000611d556022836125b1565b91507f45524332303a20617070726f766520746f20746865207a65726f20616464726560008301527f73730000000000000000000000000000000000000000000000000000000000006020830152604082019050919050565b6000611dbb6026836125b1565b91507f45524332303a207472616e7366657220616d6f756e742065786365656473206260008301527f616c616e636500000000000000000000000000000000000000000000000000006020830152604082019050919050565b6000611e216026836125b1565b91507f416464726573733a20696e73756666696369656e742062616c616e636520666f60008301527f722063616c6c00000000000000000000000000000000000000000000000000006020830152604082019050919050565b6000611e87601a836125b1565b91507f504958454c3a20696e646578206f7574206f6620626f756e64730000000000006000830152602082019050919050565b6000611ec76028836125b1565b91507f45524332303a207472616e7366657220616d6f756e742065786365656473206160008301527f6c6c6f77616e63650000000000000000000000000000000000000000000000006020830152604082019050919050565b6000611f2d6020836125b1565b91507f4f776e61626c653a2063616c6c6572206973206e6f7420746865206f776e65726000830152602082019050919050565b6000611f6d6025836125b1565b91507f45524332303a207472616e736665722066726f6d20746865207a65726f20616460008301527f64726573730000000000000000000000000000000000000000000000000000006020830152604082019050919050565b6000611fd36024836125b1565b91507f45524332303a20617070726f76652066726f6d20746865207a65726f2061646460008301527f72657373000000000000000000000000000000000000000000000000000000006020830152604082019050919050565b6000612039601d836125b1565b91507f416464726573733a2063616c6c20746f206e6f6e2d636f6e74726163740000006000830152602082019050919050565b60006120796014836125b1565b91507f4578656564206d6178696d756d20616d6f756e740000000000000000000000006000830152602082019050919050565b60006120b9602a836125b1565b91507f5361666545524332303a204552433230206f7065726174696f6e20646964206e60008301527f6f742073756363656564000000000000000000000000000000000000000000006020830152604082019050919050565b600061211f602b836125b1565b91507f6e6f7420656e6f7567682062616c616e6365206f72206e6f7420656e6f75676860008301527f2062757920616d6f756e740000000000000000000000000000000000000000006020830152604082019050919050565b60006121856036836125b1565b91507f5361666545524332303a20617070726f76652066726f6d206e6f6e2d7a65726f60008301527f20746f206e6f6e2d7a65726f20616c6c6f77616e6365000000000000000000006020830152604082019050919050565b60006121eb6025836125b1565b91507f45524332303a2064656372656173656420616c6c6f77616e63652062656c6f7760008301527f207a65726f0000000000000000000000000000000000000000000000000000006020830152604082019050919050565b61224d81612727565b82525050565b61225c81612731565b82525050565b600061226e8284611c12565b915081905092915050565b600060208201905061228e6000830184611bf4565b92915050565b60006040820190506122a96000830185611bf4565b6122b66020830184611bf4565b9392505050565b60006060820190506122d26000830186611bf4565b6122df6020830185611bf4565b6122ec6040830184612244565b949350505050565b60006040820190506123096000830185611bf4565b6123166020830184612244565b9392505050565b60006020820190506123326000830184611c03565b92915050565b600060208201905081810360008301526123528184611c43565b905092915050565b6000602082019050818103600083015261237381611c7c565b9050919050565b6000602082019050818103600083015261239381611ce2565b9050919050565b600060208201905081810360008301526123b381611d48565b9050919050565b600060208201905081810360008301526123d381611dae565b9050919050565b600060208201905081810360008301526123f381611e14565b9050919050565b6000602082019050818103600083015261241381611e7a565b9050919050565b6000602082019050818103600083015261243381611eba565b9050919050565b6000602082019050818103600083015261245381611f20565b9050919050565b6000602082019050818103600083015261247381611f60565b9050919050565b6000602082019050818103600083015261249381611fc6565b9050919050565b600060208201905081810360008301526124b38161202c565b9050919050565b600060208201905081810360008301526124d38161206c565b9050919050565b600060208201905081810360008301526124f3816120ac565b9050919050565b6000602082019050818103600083015261251381612112565b9050919050565b6000602082019050818103600083015261253381612178565b9050919050565b60006020820190508181036000830152612553816121de565b9050919050565b600060208201905061256f6000830184612244565b92915050565b600060208201905061258a6000830184612253565b92915050565b600081519050919050565b600081519050919050565b600081905092915050565b600082825260208201905092915050565b60006125cd82612727565b91506125d883612727565b9250827fffffffffffffffffffffffffffffffffffffffffffffffffffffffffffffffff0382111561260d5761260c6127a3565b5b828201905092915050565b600061262382612727565b915061262e83612727565b92508261263e5761263d6127d2565b5b828204905092915050565b600061265482612727565b915061265f83612727565b9250817fffffffffffffffffffffffffffffffffffffffffffffffffffffffffffffffff0483118215151615612698576126976127a3565b5b828202905092915050565b60006126ae82612727565b91506126b983612727565b9250828210156126cc576126cb6127a3565b5b828203905092915050565b60006126e282612707565b9050919050565b60008115159050919050565b6000612700826126d7565b9050919050565b600073ffffffffffffffffffffffffffffffffffffffff82169050919050565b6000819050919050565b600060ff82169050919050565b60005b8381101561275c578082015181840152602081019050612741565b8381111561276b576000848401525b50505050565b6000600282049050600182168061278957607f821691505b6020821081141561279d5761279c612801565b5b50919050565b7f4e487b7100000000000000000000000000000000000000000000000000000000600052601160045260246000fd5b7f4e487b7100000000000000000000000000000000000000000000000000000000600052601260045260246000fd5b7f4e487b7100000000000000000000000000000000000000000000000000000000600052602260045260246000fd5b6000601f19601f8301169050919050565b61284a816126d7565b811461285557600080fd5b50565b612861816126e9565b811461286c57600080fd5b50565b612878816126f5565b811461288357600080fd5b50565b61288f81612727565b811461289a57600080fd5b5056fea2646970667358221220c464975e9572fe764b1231cb087d4319defdc2f17db8e36d8a4d48d1fa00dc6664736f6c63430008000033",
  "immutableReferences": {},
  "source": "// SPDX-License-Identifier: Unlicensed\r\npragma solidity >=0.6.6;\r\n\r\nimport \"@openzeppelin/contracts/utils/math/SafeMath.sol\";\r\nimport \"@openzeppelin/contracts/access/Ownable.sol\";\r\nimport \"@openzeppelin/contracts/token/ERC20/ERC20.sol\";\r\nimport \"@openzeppelin/contracts/utils/structs/EnumerableSet.sol\";\r\nimport \"@openzeppelin/contracts/token/ERC20/utils/SafeERC20.sol\";\r\n\r\ncontract PixelToken is ERC20(\"Pixel Token\", \"PIXEL\"),  Ownable{\r\n    using SafeMath for uint256;\r\n    using SafeERC20 for IERC20;\r\n    using EnumerableSet for EnumerableSet.AddressSet;\r\n    \r\n    uint256 TOTALSUPPLY = 1000000;\r\n    \r\n    EnumerableSet.AddressSet private _holders;\r\n    IERC20 DaiToken;\r\n     event TokensPurchased(address indexed purchaser, uint256 amount);\r\n     \r\n    constructor() \r\n    Ownable()\r\n    {\r\n        _mint(address(this), TOTALSUPPLY);\r\n    }\r\n    \r\n    function setDaiToken(IERC20 _dai) public onlyOwner {\r\n        DaiToken = _dai;\r\n    }\r\n    \r\n    function decimals() public view virtual override returns (uint8) {\r\n        return 0;\r\n    }\r\n    \r\n    function _addHolder(address _holder) private returns (bool) {\r\n        require(_holder != address(0), \"PIXEL: _holder is the zero address\");\r\n        return EnumerableSet.add(_holders, _holder);\r\n    }\r\n\r\n    function _delHolder(address _holder) private returns (bool) {\r\n        require(_holder != address(0), \"PIXEL: _holder is the zero address\");\r\n        return EnumerableSet.remove(_holders, _holder);\r\n    }\r\n\r\n    function getBuyerLength() public view returns (uint256) {\r\n        return EnumerableSet.length(_holders);\r\n    }\r\n\r\n    function isBuyer(address account) public view returns (bool) {\r\n        return EnumerableSet.contains(_holders, account);\r\n    }\r\n\r\n    function getBuyer(uint256 _index) public view returns (address){\r\n        require(_index <= getBuyerLength() - 1, \"PIXEL: index out of bounds\");\r\n        return EnumerableSet.at(_holders, _index);\r\n    }\r\n    \r\n    function approveDai() public {\r\n        DaiToken.safeApprove(address(this), ~uint256(0));\r\n    }\r\n    \r\n    function buyPixel(uint256 buyAmount) public {\r\n        uint256 balance = balanceOf(address(this));\r\n        uint256 balanceOfBuyer = balanceOf(_msgSender());\r\n        uint256 _pixelAmount =  buyAmount.div(100).mul(100);\r\n        \r\n        require(_pixelAmount > 0 && balance >= _pixelAmount, \"not enough balance or not enough buy amount\"); \r\n        require((balanceOfBuyer+_pixelAmount) <= TOTALSUPPLY.div(10), \"Exeed maximum amount\");\r\n        \r\n        DaiToken.safeTransferFrom(_msgSender(), address(this), _pixelAmount.mul(10**18));\r\n        transfer(_msgSender(), _pixelAmount);\r\n        emit TokensPurchased(_msgSender(), _pixelAmount);\r\n    }\r\n    \r\n    function withDrawDai(uint256 _amount) public onlyOwner {\r\n        DaiToken.safeTransfer(_msgSender(), _amount);\r\n    }\r\n}",
  "sourcePath": "F:/Working/Ethereum-studying/erc20/contracts/1.sol",
  "compiler": {
    "name": "solc",
    "version": "0.8.0+commit.c7dfd78e.Emscripten.clang"
  },
  "schemaVersion": "3.4.1",
  "updatedAt": "2021-07-10T06:05:22.881Z",
  "devdoc": {
    "kind": "dev",
    "methods": {
      "allowance(address,address)": {
        "details": "See {IERC20-allowance}."
      },
      "approve(address,uint256)": {
        "details": "See {IERC20-approve}. Requirements: - `spender` cannot be the zero address."
      },
      "balanceOf(address)": {
        "details": "See {IERC20-balanceOf}."
      },
      "decimals()": {
        "details": "Returns the number of decimals used to get its user representation. For example, if `decimals` equals `2`, a balance of `505` tokens should be displayed to a user as `5,05` (`505 / 10 ** 2`). Tokens usually opt for a value of 18, imitating the relationship between Ether and Wei. This is the value {ERC20} uses, unless this function is overridden; NOTE: This information is only used for _display_ purposes: it in no way affects any of the arithmetic of the contract, including {IERC20-balanceOf} and {IERC20-transfer}."
      },
      "decreaseAllowance(address,uint256)": {
        "details": "Atomically decreases the allowance granted to `spender` by the caller. This is an alternative to {approve} that can be used as a mitigation for problems described in {IERC20-approve}. Emits an {Approval} event indicating the updated allowance. Requirements: - `spender` cannot be the zero address. - `spender` must have allowance for the caller of at least `subtractedValue`."
      },
      "increaseAllowance(address,uint256)": {
        "details": "Atomically increases the allowance granted to `spender` by the caller. This is an alternative to {approve} that can be used as a mitigation for problems described in {IERC20-approve}. Emits an {Approval} event indicating the updated allowance. Requirements: - `spender` cannot be the zero address."
      },
      "name()": {
        "details": "Returns the name of the token."
      },
      "owner()": {
        "details": "Returns the address of the current owner."
      },
      "renounceOwnership()": {
        "details": "Leaves the contract without owner. It will not be possible to call `onlyOwner` functions anymore. Can only be called by the current owner. NOTE: Renouncing ownership will leave the contract without an owner, thereby removing any functionality that is only available to the owner."
      },
      "symbol()": {
        "details": "Returns the symbol of the token, usually a shorter version of the name."
      },
      "totalSupply()": {
        "details": "See {IERC20-totalSupply}."
      },
      "transfer(address,uint256)": {
        "details": "See {IERC20-transfer}. Requirements: - `recipient` cannot be the zero address. - the caller must have a balance of at least `amount`."
      },
      "transferFrom(address,address,uint256)": {
        "details": "See {IERC20-transferFrom}. Emits an {Approval} event indicating the updated allowance. This is not required by the EIP. See the note at the beginning of {ERC20}. Requirements: - `sender` and `recipient` cannot be the zero address. - `sender` must have a balance of at least `amount`. - the caller must have allowance for ``sender``'s tokens of at least `amount`."
      },
      "transferOwnership(address)": {
        "details": "Transfers ownership of the contract to a new account (`newOwner`). Can only be called by the current owner."
      }
    },
    "version": 1
  },
  "userdoc": {
    "kind": "user",
    "methods": {},
    "version": 1
  }
}